:020000040800F2
:10800000907F0020DD810008B3CC000805C2000885
:10801000B1CC00085993000891FD00080000000051
:10802000000000000000000000000000398100088E
:1080300025950008000000007D810008A5D80008F3
:10804000F7810008F7810008F7810008F781000830
:10805000F7810008F7810008F7810008F781000820
:10806000F7810008F7810008F7810008F781000810
:10807000F7810008F7810008F7810008F781000800
:10808000F7810008F7810008F7810008F7810008F0
:10809000F7810008F7810008F7810008F7810008E0
:1080A000F7810008F7810008F7810008F7810008D0
:1080B000F7810008F7810008F7810008F7810008C0
:1080C000F7810008F7810008F7810008F7810008B0
:1080D000F78100085DFB000871FC0008F7810008CB
:1080E000E1950008B5CF0008F7810008C1F5000848
:1080F000CDF5000800000000F7810008F7810008B6
:108100000000000000000000F7810008F78100086F
:10811000F7810008F7810008F781000800000000DF
:10812000F7810008DFF80CD000F048FE0048004757
:10813000C92A0108907F0020204B19680868B0E820
:10814000F00F80F30988BFF36F8F4FF0000080F3CA
:1081500011884EF00D0E70470000000006480068C0
:10816000006880F3088862B661B6BFF34F8FBFF333
:108170006F8F00DF00BF00BF08ED00E0EFF3098064
:10818000BFF36F8F0D4B1A6820E9F00F106008B530
:108190004FF0500080F311880BF0C4FC4FF000004A
:1081A00080F31188BDE8084019680868B0E8F00F4E
:1081B00080F30988BFF36F8F704700BF0000002075
:1081C000EFF311804FF0500181F31188704780F375
:1081D00011887047EFF3058070470000064880471C
:1081E00006480047FEE7FEE7FEE7FEE7FEE7FEE79C
:1081F000FEE7FEE7FEE7FEE771F5000825810008CF
:1082000040EA01039B0703D009E008C9121F08C018
:10821000042AFAD203E011F8013B00F8013B521E98
:10822000F9D27047D2B201E000F8012B491EFBD20F
:1082300070470022F6E710B513460A460446194671
:10824000FFF7F0FF204610BD30B505462A460B4625
:1082500012F8010B13F8014B08B1A042F8D01CB181
:10826000002802D06D1CF1E7284630BD421C10F8F2
:10827000011B0029FBD1801A704700000FB400B524
:108280008DB010A909900B9000914FF0FF300A902B
:1082900000200C9005480690054807906A4609A8FA
:1082A0000F9900F0A5FC0DB05DF814FB0D8C0008D3
:1082B0002B8C00082DE9FF5F1D464FF0FF3BD5E9F1
:1082C000014691465F464FF00008A9697F1C01985E
:1082D0008847296A824688470028F6D1BAF1FF3FCD
:1082E0000CD024F4C064002E19DD600614D5BAF158
:1082F0002B0F09D0BAF12D0F0ED103E0584604B070
:10830000BDE8F09F44F48064A9697F1C0198884708
:10831000761E8246002E02DDBAF1300F03D0B9F18D
:10832000000F26D032E0A969761E44F400747F1C49
:10833000019888478246002E05DDBAF1780F06D0F5
:10834000BAF1580F03D0B9F1000F10D01EE0B9F107
:10835000000F02D0B9F1100F18D1A969761E24F4CC
:1083600000747F1C019888478246102002E0082094
:1083700000E00A20814609E008FB0908A969761E89
:1083800044F400747F1C019888478246002E05DD66
:108390004946504600F018FC0028EDDAE9690198DA
:1083A0008847A00502D46FF00100A8E7E00725D1B7
:1083B000600613D5600502D5C8F1000000E0404614
:1083C00029680A1D2A600968220501D5087015E090
:1083D000220701D5088011E008600FE02868011D20
:1083E00029600068210502D580F8008006E0210799
:1083F00002D5A0F8008001E0C0F8008038467EE792
:108400002DE9FF4F087881B09946FF2805D0491C17
:108410002D2804D00024002308E000230BE00124D1
:10842000F9E703EB830300EB4303491C0878FF28BB
:10843000F7D104B15B4200200090147801462D2C46
:1084400001D02B2C04D1521C2D2C12D000240094CE
:1084500000251678FF2E0ED00A24A0FB04C801FBCD
:108460000481002700FB0711521C16EB0C00694128
:10847000EFE70124EBE7994450EA01020ED0002413
:10848000AA4D2646DFF8A88200F074FC82468B468F
:10849000B9F1000009DAC9F100071BE001980021D9
:1084A000C0E9001105B0BDE8F08F074612E0F807FB
:1084B00007D022462B463046414600F0E4F90646F6
:1084C000884622462B461046194600F0DCF9044641
:1084D0000D467F10002FEAD1B9F1000F3246434616
:1084E0005046594602DA00F040FA01E000F0CBF9BC
:1084F000009A0AB181F00041019AC2E90001D1E776
:108500002DE9FF4F1F468DB0D7E901464FF0FF38E8
:108510002E2045464FF000090B90B9696D1C0E984E
:108520008847396A824688470028F6D1BAF1FF3F6A
:108530000AD024F4D064002E11DDBAF12B0F08D03C
:10854000BAF12D0F0BD102E0404611B0ABE744F475
:108550008064B9696D1C0E9888478246761E69460C
:10856000600501D52D2000E02B208DF8000001F1E1
:10857000010B0DF1200809E0B9696D1C0E988847C0
:1085800082460F9844F40074761E0560002E02DDCA
:10859000BAF1300FF0D00B998A453ED144F08004F7
:1085A00006E00F99681CA9F1010944F40074086001
:1085B000B9696D1C761E0E98884782463028F0D027
:1085C0002BE00B998A4505D1200603D444F08004A2
:1085D000761E18E0504607F069FF08B30DF113014D
:1085E000761E44F400748B4508D2AAF130000BF8D3
:1085F000010B200607D5A9F1010003E0200602D4F3
:1086000009F101008146A00502D50F99681C086098
:10861000B9696D1C0E9888478246002ED1DC53E064
:10862000002E51DDBAF1650F02D0BAF1450F4BD1E2
:10863000A00549D5B9696D1C24F44074761E0E98C6
:1086400088478246002E0CDD2B2804D0BAF12D0F6E
:1086500007D144F48074B9696D1C0E98884782462E
:10866000761EE00501D52D2100E02B2108F8011B25
:10867000CDF82C8021E00DF12901761E44F4007420
:1086800088450CD2AAF1300010F0FF0088F80000F5
:1086900002D10B99884509D908F1010806E0E005E7
:1086A00001D5244801E042F20F708146B9696D1C82
:1086B0000E98884782460F980560002E04DD5046CC
:1086C00007F0F4FE0028D6D1F9690E988847FF20FC
:1086D0008BF8000088F800000020069007904B46B9
:1086E0006A4608A906A8FFF78BFEA00502D46FF022
:1086F00001002AE714F0240F0AD0E00714D1DDE9C5
:1087000006123868031D3B600068C0E900120BE0E8
:10871000DDE9060100F0C4F90146E00704D138683C
:10872000021D3A600068016028460EE70000244000
:108730000000F03FF1D8FFFF2DE9FE4F804681EAAF
:108740000300C00F0C46009021F0004123F00045CB
:10875000B8EB0200A94105D24046214690461C468E
:108760000B46024623F00040104347D0270DC7F3C5
:108770000A00C3F30A510290401A019040286BDAB4
:10878000C3F3130040F4801B0098924620B10023ED
:10879000D2EB030A63EB0B0B01985946C0F1400280
:1087A000504600F0E0F906460D4650465946019AFB
:1087B00000F0F8F910EB08006141002487EA11523B
:1087C00084EAE7731A4340D0009A62B3019A012AFF
:1087D0004FEA075215DC001B61EB02014FF000422B
:1087E00002EA0752CDE90042001C41F580113246F1
:1087F0002B4600F071FA03B0BDE8F08F40462146E9
:10880000F9E7001B61EB0201001C41F58013001821
:108810005B412018A2F5001747EB030140EAD57031
:10882000B6196D4111E06D084FEA360645EAC0758C
:108830004FEA0752001B61EB0201001C41F5801159
:1088400049084FEA30000019514132462B4603B027
:10885000BDE8F04F00F031BA00980122400000233B
:10886000D0EB020263EBE073009821464FEAE0741C
:10887000B8EB000061EB0401E9E783F000435BE73C
:1088800081F0004158E72DE9FE4F81EA030404F02E
:10889000004421F0004100944FF0000B23F000430E
:1088A00050EA01045ED052EA03045BD0C3F30A54D9
:1088B000C1F30A552C44A4F2F3340194A0FB0254F2
:1088C000C1F3130141F48011C3F3130343F4801384
:1088D00001FB024400FB034E840A970A44EA8154D8
:1088E00047EA8357A4FB076802958D0A05FB0785B5
:1088F0004FEA932C04FB0C542705029D4FEA0658BF
:1089000047EA1637B5EB08056EEB070C870E920E9B
:1089100047EA811742EA8312A7FB0201B6EB0B017B
:1089200064EB00042B0D43EA0C335E1844EB1C503F
:10893000DA465146E7FB0201C5F313044FEA0B3355
:1089400043EA14534FEA0432019C43EA0603A4F1BC
:108950000C040294009CCDE900B400F0BDF903B012
:10896000BDE8F08F00200146F9E72DE9F04D81EADE
:10897000030404F0004B21F0004514464FF0000AB8
:1089800023F0004150EA050220D054EA01021DD034
:10899000C5F30A570246C5F31303C1F31300C1F32D
:1089A0000A5640F4801543F48013A7EB0608101B09
:1089B000D64608F2FD3873EB050002D308F1010832
:1089C00001E092185B41B8F1000F03DA0020014684
:1089D000BDE8F08D00204FF48011064684460EE07D
:1089E000171B73EB050705D3121B63EB0503064347
:1089F0004CEA010C49084FEA300092185B4150EAFA
:108A00000107EDD152EA030012D082EA040083EAA2
:108A10000501084305D0101BAB4106D201220023FB
:108A200006E000224FF0004302E06FF00102531015
:108A30001AEB06004CEB085110EB0A0041EB0B015E
:108A4000BDE8F04D00F039B900F0004230F00040D0
:108A50000AD0C10D01F56071C0F3160042EA015160
:108A6000C2084007114370470020014670470000CC
:108A700030B5041E71F1000404DB4FF000444042A5
:108A800064EB0101141E73F1000405DB1C464FF07A
:108A90000043524263EB0403994208BF904230BD49
:108AA00001F0004330B421F0004150EA010206D049
:108AB0000A0DA2F56072C1F31301002A02DC30BC7A
:108AC00000207047440F44EAC104C100E01830BCE4
:108AD00000EBC25000F0BAB830B50B46014600209A
:108AE0002022012409E021FA02F59D4205D303FA70
:108AF00002F5491B04FA02F52844151EA2F10102F1
:108B0000F1DC30BD2DE9F05F0546002092469B4622
:108B100088460646814640241BE028464146474693
:108B2000224600F02FF853465A46C01A914110D3FE
:108B300011461846224600F016F82D1A67EB010878
:108B40004F4622460120002100F00DF817EB0009E6
:108B50004E41201EA4F10104DFDC484631462A467E
:108B60004346BDE8F09F202A04DB203A00FA02F1D8
:108B7000002070479140C2F1200320FA03F319430B
:108B800090407047202A04DB203A21FA02F00021AD
:108B9000704721FA02F3D040C2F12002914008430D
:108BA00019467047202A06DBCB17203A41FA02F01B
:108BB00043EAE07306E041FA02F3D040C2F120023A
:108BC00091400843194670473A2800D2303820F0C7
:108BD0002002412A01D3A2F13700884201D34FF08D
:108BE000FF307047026811441378016018467047DF
:108BF000D16004495161044911620021116111469B
:108C000000F0F4B8E58B0008E18D0008426842B13D
:108C1000016811F8013B23B1521EC0E90012184649
:108C200070470121C160881E704742685AB1C3680D
:108C3000016843B983688B4205D0491E521CC0E9C4
:108C40000012002070474FF0FF3070470029A8BF86
:108C50007047401C490008BF20F00100704710B465
:108C6000B0FA80FC00FA0CF050EA010404BF10BC1A
:108C7000704749B1CCF1200421FA04F411FA0CF147
:108C800018BF012121430843A3EB0C01CB1D4FEA80
:108C900000614FEA102042BF002010BC704700EB7B
:108CA000C35010440029A4BF10BC7047401C4900A9
:108CB00008BF20F0010010BC704710B5141E73F1FE
:108CC000000408DA401C41F1000192185B411A438C
:108CD00001D120F0010010BD2DE9F04D92469B46D8
:108CE00011B1B1FA81F202E0B0FA80F2203290467E
:108CF000FFF739FF04460F4640EA0A0041EA0B013C
:108D000053465A46084313D0114653EA010019D07E
:108D1000C8F140025046FFF735FF05460E46504663
:108D200059464246FFF71FFF084305D0012004E0E3
:108D300020463946BDE8F08D0020054346EAE0763E
:108D40002C4337430A986305E40AA0EB080000228D
:108D5000FD0A44EA47540A3002D500200146E9E7FB
:108D6000010510196941DDE9084500196941BDE8AF
:108D7000F04DA2E70EB540F2334202920022CDE957
:108D800000221346FFF7A8FF03B000BDC1F30A524B
:108D9000C1F3130140F2FF3341F480119A4202DA29
:108DA00000200146704740F233439A42A2F2334218
:108DB00002DC5242FFF7E6BEFFF7D5BE064C074D78
:108DC00006E0E06840F0010394E80700984710349B
:108DD000AC42F6D3FFF7AAF9F45101081452010886
:108DE000C0B24FF4F05100F097B900002DE9F34FF5
:108DF0008BB04FF0000801F10C000C464FF0010B56
:108E000046460DF1080A01906269012101989047D8
:108E100005002DD0252D2CD0216A8847C0B162696C
:108E2000012101989047216A88470028F7D1411E07
:108E300062690198904700E0761CA1690B98884709
:108E4000216A88470028F7D1E1690B988847DBE75A
:108E5000A1690B9888470746A84201D1761CD3E741
:108E6000E1690B9888477F1C02D1B8F1000F6FD0E1
:108E700046E1002762693D463946019890472A2815
:108E800004D162690121019890470125DFF884929D
:108E90006269012101989047A0F130010A290AD2A4
:108EA0004F45E5DC07EB870100EB4107303FDFD49E
:108EB00045F01005ECE7E90601D46FF000476C2897
:108EC0000AD04C2814D0682815D06A280DD07428F0
:108ED0001CD07A281AD01DE06269012101989047C0
:108EE0006C2802D045F0040514E045F002050DE0C1
:108EF00045F020050AE06269012101989047682841
:108F000002D045F0080505E045F4006562690121DD
:108F100001989047C4E9015765283DD019DC5828CD
:108F20007AD00CDC452837D004DC252826D041280F
:108F300031D131E046282FD047282CD12CE05B28B6
:108F400077D0612828D063287CD0642823D15AE0C8
:108F5000D0E06F2848D008DC66281DD067281BD0D9
:108F6000692821D06E2816D127E0702845D07328B3
:108F700068D0752847D078280DD14DE0A1690B98AD
:108F80008847054625283FF469AFE1690B98884773
:108F90006D1C3FF46AAFB3E023466A466FF00100F0
:108FA0000B99FFF7ADFA9EE045F040006060A8071E
:108FB00023464FF0000236D43EE0E8077FF447AF87
:108FC0002068011D21600068290501D506701BE796
:108FD000290701D5068017E7A90703D5F117C0E9CE
:108FE000006111E706600FE745F040006060A807E8
:108FF00023464FF0080216D41EE040F60E0125EA83
:109000000100606016E045F040006060A80723465C
:109010004FF00A0207D40FE045F040006060A80757
:1090200008D5234610226FF001000B99AFF30080A2
:1090300059E007E0234610226FF001000B99FFF77B
:1090400039F950E04FF000094F464B46632802D0F3
:109050005B2806D040E0E80601D40120A06001278B
:109060003AE062690121019890475E2805D14FF0EE
:1090700001096269494601989047216939B900217F
:109080000A46534643F82120491C0829FADBB0B3AD
:10909000216969B9C11700EBD16253110AEB830151
:1090A00022F01F02821A01200B68904003430B60DC
:1090B00062690121019890475D28E8D1B9F1000F5C
:1090C00009D00020514651F82020D24341F82020F9
:1090D000401C0828F7DB02AB224600976FF0010026
:1090E0000B99AFF3008000280CDA401C08D1BBF1CB
:1090F000000F05D04FF0FF300DB0BDE8F08FFFE757
:109100004046F9E7E90701D108F1010806444FF0AC
:10911000000B79E6CCCCCC0C7F2801D9002208E0EA
:10912000064A02EB5002C007127800D1120902F081
:109130000F02012090400840704700008C51010848
:109140002DE9F04107461D4616460C46DDF818800D
:10915000006809F067FCC1B2D8F80000401CC8F8EC
:1091600000003B2822DD0022C8F800202868401CAF
:10917000286017281ADD2A6001EB8102306802EBB3
:10918000C1010B4A401C02EB41013060226831F8FA
:10919000121081420ADA012131602068401C2060EF
:1091A0000C2803DD21603868401C3860BDE8F08180
:1091B0006846010810B5044603F0AAFF04F12C002C
:1091C00003F030FF01002069227E00F1010002F16E
:1091D0000202237A00FA02F04FF0010202FA03F2CF
:1091E00000FB02F0C4E9110201D0012010BD0020F3
:1091F00010BD10B58023FF2200210D2004F0F8F8E7
:1092000004F07EF8044604F07BF844EA002404F0FD
:10921000E1F80CB1012010BD002010BD10B504F024
:109220003FF80A49012008700346002195220846AC
:1092300004F0DEF808B1012010BD0023FF2219461A
:10924000012004F0D5F80028F7D110BD210100203D
:109250002DE9F04717461E4689464FF000080446A0
:1092600001254346FF223946102004F087F858B9FB
:1092700012E000BF04F0AEF809EB08010023FF2262
:10928000112004F07BF810B10120BDE8F087FE202A
:1092900004F04EF830B10125761EEBD204F09AF8B6
:1092A0002846F2E7002504E004F02AF804F8010B50
:1092B0006D1CBD42F8D3B84404F022F804F020F845
:1092C0000025E9E72DE9F0471E4617468A464FF08C
:1092D00000080125044637E00AEB08010023FF22BD
:1092E000182004F04BF810B10120BDE8F087FF20F2
:1092F00004F030F8FE2004F02DF8002504E020787A
:1093000004F028F8641C6D1CBD42F8D3B84403F087
:10931000F7FF03F0F5FF4FF0000900BF03F0F0FF87
:1093200000F01F05052D08D00B2D0CD00D2D0AD0F7
:1093300009F10109B9F1400FF0D903F0E1FF00286C
:10934000FBD0052D06D00125761EC5D204F042F8CB
:109350002846CAE70025F7E7FEE7000000B587B01A
:1093600014216846FEF765FF0F48016841F01001BF
:1093700001600068694600F0100005904FF47040ED
:1093800000900020029002200390084801900848B5
:1093900000F0E6FC00220A21282001F0CFF9282065
:1093A00001F0C1F907B000BD1C38024000002110D7
:1093B0000010024008B500200090401C00903228A8
:1093C000FBD308BD00290AD10069002807D0044951
:1093D0000861002141800180084603F081BA70478E
:1093E0003C0000201CB5334882784178CDE900125A
:1093F000C37831A28021364806F06EFF0023344A3C
:109400001946184603F0B4FA314828388278417872
:10941000CDE9001203782FA28021283006F05CFFEE
:1094200000232B4A1946012003F0A2FA2E4890F897
:109430001A1171B32DA1264806F062FF0023244AB9
:109440000821022003F094FA00242A4B042221462A
:109450000220009403F0A7F9274B012207210220E4
:10946000009403F0A0F9254890F83811C1B124A167
:10947000174806F045FF0023154A0821032003F092
:1094800077FA224B042200210320009403F08BF989
:109490001CBDFFE702681EA10D4806F031FFCDE7B5
:1094A0000068FFF7D1FA02460B461BA1084806F0F8
:1094B00027FFE0E740000020202020323025303216
:1094C000752D253032752D25303275202020000075
:1094D0008002002020202020253032753A253032AD
:1094E000753A253032750000480C00203A20202FB4
:1094F0002F2F00002C4F01082C500108EC0D0020EC
:109500003A2F2F2E2F6D2F7300000000AC4F010853
:109510003A202025303364003A25342E31666D2FF1
:1095200073000000704700008EB02C216846FEF7E3
:1095300080FE684608F06CFF002003F0D1F9254C4E
:10954000DFF894804FF47A764FF4007732460BA818
:10955000A16909F033FBDDE90B1010290FD101B22D
:10956000207818B12069826802B1904701202070EC
:1095700000223946404600F0BEFC3C206080154881
:109580001649001D08F016FF20780128DED1206959
:10959000C16801B188476088401E00B260802828F9
:1095A00004DA01223946404600F0A5FCB4F9020075
:1095B0000128CBDA0025257001223946404600F00B
:1095C0009AFC002003F08CF90448A8302061458003
:1095D0000580BBE73C000020000402405802002048
:1095E00010B54FF4805000F0AFFB4FF4005000F086
:1095F000ABFB4FF4804000F0A7FBBDE810404FF4F8
:10960000004000F0A1BB000005464FF47A742946E3
:1096100003A006F051FE204600F0BAFAF7E700007A
:109620004572726F723A257300000000002200F04C
:1096300001B8000030B50E4B054601205C7A012CC4
:1096400015D8587A00241C54587A03EB80004560E2
:109650005D7A03F108002A54587A421C5A7230305D
:1096600008703A2048702F208870CC70002030BDE0
:10967000846F00202DE9F05F002406464FF0040BB4
:109680000122274631B101290FD002297DD00329BB
:109690000AD129E13069002806D09749086147803E
:1096A0000280002003F01CF9E3E09549B6F9003090
:1096B000DFF848C2DFF84C82934D08684FF47A799E
:1096C00043B1012B35D0022B67D0032B7ED0042B66
:1096D0007DD0CEE08CF80020C168924621F02001B8
:1096E000C160FF23032289A1854802F025FD641C87
:1096F000E4B2322CF5D34C46484609F04EFAFF232B
:10970000042283A17E4802F017FD204609F045FAA5
:109710007B480068C16841F02001C160FF2303223B
:109720007DA1774802F008FD204609F036FA0821AD
:1097300064E08CF80020C168924621F02001C160ED
:10974000FF23032271A16E4802F0F6FC641CE4B210
:10975000322CF5D34C46484609F01FFAFF23042269
:109760006EA1674802F0E8FC204609F016FA64484A
:109770000068C16841F02001C160FF23032266A197
:109780005F4802F0D9FC204600E0AAE009F005FAA3
:1097900088F804B085F800A064E08CF80020C16867
:1097A000924621F02001C160FF23032257A15448B3
:1097B00002F0C2FC641CE4B2322CF5D34C4648469D
:1097C00009F0EBF9FF23042256A101E019E058E06B
:1097D0004B4802F0B1FC204609F0DFF94848006828
:1097E000C16841F02001C160FF2303224AA144481F
:1097F00002F0A2FC204609F0D0F9022188F80410FA
:10980000C8E78CF80020C168924621F02001C160B1
:10981000FF2303223DA13A4802F08EFC641CE4B20F
:10982000322CF5D34C46484609F0B7F9FF23052200
:109830003EA1334802F080FC204609F0AEF93048E2
:109840000068C16841F02001C160FF23032232A1FA
:109850002B4802F071FC204609F09FF988F804A01B
:1098600085F800A0002333A21946032003F080F8F6
:109870002F70B6F9000000283ADAA6F800B0BDE86B
:10988000F09F8CF80020C168924621F02001C16051
:10989000FF2303221DA11A4802F04EFC641CE4B20F
:1098A000322CF5D34C46484609F077F9FF230522C0
:1098B00022A1134802F040FC204609F06EF910483E
:1098C0000068C16841F02001C160FF23032212A19A
:1098D0000B4802F031FC204609F05FF988F804706B
:1098E00058E73088401E01E03088401C3080D8E6C0
:1098F0000428C4DD3780C2E73C0000206900002056
:10990000981C0020B8000020680000202A0D0A00E2
:1099100050330D0A00000000510D0A0050320D0AAC
:109920000000000050310D0A000000005032310DDF
:109930000A000000536574206F6B00005032300D38
:109940000A00000038B50546B0F9000000240328DD
:1099500001DA6C8001E001206880B5F902106F48DF
:1099600069B1012971D1007908287AD004286ED014
:1099700002286DD001286CD000286BD0A6E00079B9
:10998000082807D004280FD0022817D001281FD09C
:1099900040B334E0624B022201210020009402F027
:1099A00002FF00235FA226E05D4B0222012100207E
:1099B000009402F0F8FE00235DA21CE0584B022246
:1099C00001210020009402F0EEFE00235BA212E0D1
:1099D000534B022201210020009402F0E4FE0023F8
:1099E00059A208E04E4B022201210020009402F00F
:1099F000DAFE002357A20821002002F0B9FF584BDD
:109A0000042200210120009402F0CDFE002355A283
:109A10000821012002F0ACFF2888E0B1002352A207
:109A20000921012002F0A4FF2888012815D0002375
:109A30004FA20921022002F09BFF288802280ED0A5
:109A4000002309214CA203205DE065E009E012E05B
:109A50001BE024E02DE00123E1E70123E8E70123F7
:109A6000EFE72F4B022201210020009402F09BFE21
:109A700000232CA226E02A4B022201210020009480
:109A800002F091FE00232AA21CE0254B02220121B4
:109A90000020009402F087FE002328A212E0204B51
:109AA000022201210020009402F07DFE002326A264
:109AB00008E01B4B022201210020009402F073FEFB
:109AC000002324A20821002002F052FF244B04228C
:109AD00000210120009402F066FE002321A208214B
:109AE000012002F045FF2888032811D0002324A27A
:109AF0000921012002F03CFF288804280AD0002315
:109B0000092121A2022001B0BDE8304002F030BF9F
:109B10000123ECE70123F3E738BD0000B800002083
:109B2000EC4E01083A2020202034487A2020000002
:109B30003A2020202032487A202000003A2020209D
:109B40002031487A202000003A2020302E35487AF3
:109B5000202000003A20302E3235487A20200000A4
:109B60004C5001083A0000002020342020487A00A0
:109B70002020322020487A002020312020487A00FE
:109B800020302E3520487A0020302E3235487A0099
:109B900031B500F0B5F9044600F0B2F90099001BA8
:109BA0008842F9D338BD00002DE9F04F002301278A
:109BB0000F24DFF8F8A074E007FA03F616EA0102B2
:109BC0006ED005684FEA43084FF0030C0CFA08FC0E
:109BD00025EA0C050560DD0800EB8508C346D8F8CA
:109BE00020905D074FEAD56804FA08F529EA0509CF
:109BF000CBF82090856825EA0C0585604568B5435B
:109C00004560C56825EA0C05C56023F0030606EB30
:109C10000A05D5F808C09E07360F04FA06F909EAC6
:109C20000C08DFF88CC0604502D14FF0000C1DE03D
:109C3000DFF880C0604502D14FF0010C16E0DFF87C
:109C400078C0604502D14FF0020C0FE0DFF86CC025
:109C5000604502D14FF0030C08E0DFF864C06045B6
:109C600002D14FF0040C01E04FF0050C0CFA06FC99
:109C7000C44515D1D5F808C02CEA090CC5F808C0B0
:109C8000104E356895433560351D2E6896432E601D
:109C90002D1D2E6896432E602E1D35689543356028
:109CA0005B1C31FA03F287D1BDE8F08F0000014060
:109CB000000002400004024000080240000C024084
:109CC000001002400004014038B50446282000F08E
:109CD0001FFD002140F6B8300091491C00918142DF
:109CE000FBD32146164800F001F918BB154AB4F51C
:109CF000805F09D0B4F5005F0BD0B4F5804F0DD074
:109D0000B4F5004F11D015E0906998B1642200219C
:109D100008E0906970B16422012103E0906948B1C4
:109D20006422022108F092FF04E0906910B16422DD
:109D30000321F7E7BDE83840282000F0F4BC00001C
:109D4000001002403C000020044910B50A6802429D
:109D500002D00860FFF7B8FF10BD000014040140F6
:109D60002DE9F84FDFF864B100234FF0010C4FF0FC
:109D7000030A4FF00F090BF1040EA0E00CFA03F6F2
:109D8000324072D04C68022C01D0122C0ED1DC086B
:109D900000EB8408D8F820405D07EF0E09FA07F5BC
:109DA000AC430D69BD402543C8F8205007685D00ED
:109DB00091F804800AFA05F408F00308A74308FAAA
:109DC00005F848EA0708C0F800804F68012F05D061
:109DD000022F03D0112F01D0122F11D18768D1F893
:109DE0000C80A74308FA05F848EA0708C0F808807D
:109DF0004768B7430E79C6F300169E403E4346605F
:109E0000C668A6438C68AC403443C4604C68E40028
:109E100054D52F4C256845F001052560246823F0B2
:109E2000030504F0010400942A4C2544AF689C0704
:109E3000240F09FA04F6B743274EB04201D1002699
:109E400015E0264EB04201D1012610E0244EB0426A
:109E500001D102260BE0234EB04201D1032606E0D9
:109E6000214EB04202D1042601E027E00526A6409B
:109E70003E43AE60DBF800405D464E689443F60317
:109E800000D514432C60DEF8004075464E689443BC
:109E9000B60300D514432C600C4D08352C684E6871
:109EA0009443F60200D514432C60084D0C352C6801
:109EB0004E689443B60200D514432C605B1C0A68BC
:109EC00032FA03F47FF45AAFBDE8F88F0004014082
:109ED000203802400000014000000240000402401F
:109EE00000080240000C02400010024000690840D7
:109EF00000D0012070470AB1816170470904FBE777
:109F00000148006870470000E400002010B504001C
:109F100013D0242084F83D002068016821F001015D
:109F20000160204600F018FB0020206484F83D000A
:109F300044F8300FA073207310BD012010BD000045
:109F400070B504000DD094F83D00002520B984F8C8
:109F50003C50204600F036FB00F012FE4649884295
:109F600001D2012070BD242184F83D1021680A68C7
:109F700022F001020A6041492268B0FBF1F1536806
:109F800023F03F030B4353603D4A6368934206D975
:109F90004FF4967359434FF47A73B1FBF3F123688E
:109FA000491C1E6A26F03F063143196261689142DE
:109FB0000BD84900B0FBF1F2C2F30B02042A01D224
:109FC000042019E0B0FBF1F016E0A368F3B301EB55
:109FD000C10202EB0112B0FBF2F242F48042120520
:109FE00043D0A3B301EBC10202EB0111B0FBF1F0CE
:109FF00040F4804040F400402168CA694CF6FF7389
:10A000009A431043C861D4E90701084321680A68EC
:10A0100022F0C00210430860D4E90310084321680D
:10A020008A6848F2FF339A4310438860D4E90501F7
:10A0300008432168CA6822F0FF021043C860206804
:10A04000016841F001010160256401E008E00EE0D3
:10A05000202084F83D00256384F83E50002070BD28
:10A0600001EB4102B0FBF2F2B9E70120C4E701EBDA
:10A070004101B0FBF1F0BDE780841E0040420F00BB
:10A08000A08601002DE9FF4F81B09B468A46044619
:10A090004FF00108FFF734FF054694F83D002028F3
:10A0A00072D1192301224FF002112046009502F0CF
:10A0B000C6F9002868D194F83C00012864D001203A
:10A0C00084F83C0020680168C90703D1016841F0A9
:10A0D000010101602068016821F400610160242011
:10A0E00084F83D00002626643B48E0622027206873
:10A0F000016841F4807101605B4600224FF001115C
:10A100002046009502F09BF9E8BB21680AF0FE00AA
:10A110000861FFF7F5FE05464FF0A0090DE000BF0E
:10A12000BBF1FF3F09D0BBF1000F04D0FFF7E8FE01
:10A13000411B594501D984F83D9020684169C943C4
:10A14000890707D54169C943490503D594F83D10EE
:10A15000A029E5D184F83D704169C94389071AD423
:10A16000016841F400710160206841698069192328
:10A1700001224FF002112046009502F060F910B95B
:10A1800084F83D7001E017E024E084F83C60002092
:10A1900005B0BDE8F08F016841F4007101602068EE
:10A1A0006FF480614161192301224FF002112046B2
:10A1B000009502F044F908B10320E9E7414603980D
:10A1C00008F10108814292D384F83D7084F83C6024
:10A1D0000120DDE70220DBE70000FFFF2DE9FF4F54
:10A1E00083B09A46DDE9108793460446DDF848902F
:10A1F000FFF786FE054694F83D00202875D1B8F19A
:10A20000000F7DD0002F7BD0192301224FF00211C7
:10A210002046009502F013F90028EFD194F83C0095
:10A22000012862D0012084F83C0020680168C90739
:10A2300003D1016841F0010101602068016821F447
:10A2400000610160222084F83D00402084F83E0037
:10A2500000262664C4F8248067856C48E062608D1F
:10A260002085CDE9009553465A462046049901F0D1
:10A27000F7FF28B1206C84F83C60042840D07DE0D2
:10A28000208DDFF88C81012802D002280ED017E043
:10A290002068016821F4806101602068416981695A
:10A2A0000091016841F4007101609FE0206801683D
:10A2B00021F4806101602068016841F4006101605F
:10A2C000206841698069009090E003286BD80128DC
:10A2D0000DD0022F4B464FF000024146204600951C
:10A2E00017D002F0ACF878BB2FE08CE008E02A46EB
:10A2F0004946204602F018F930B1206C20283DD0A4
:10A30000012007B0BDE8F08F20680269606A411C37
:10A3100017E002F094F8B8B92068016841F40071C0
:10A32000016020680169606A421C62620170208DD0
:10A33000401E2085608D401E608520680269606A2D
:10A34000411C616202704BE018E02068016821F452
:10A350008061016020680269606A411C616202706C
:10A36000208D401E2085608D401E60854B4600225A
:10A3700041462046009502F062F808B10320C0E78C
:10A380002068016841F40071016020680169606A19
:10A39000421C62620170208D401E2085608D401E2F
:10A3A0006085206817E02A464946204602F0BCF83E
:10A3B0000028A2D120680169606A421C62620170B3
:10A3C000208D401E2085608D401E6085206841697B
:10A3D000C94349070AD40169606A421C626201707C
:10A3E000208D401E2085608D401E6085208D0028B8
:10A3F0007FF46BAF202084F83D0084F83E6084F841
:10A400003C6000207DE702207BE700000000FFFFAA
:10A41000040001002DE9FF4F83B09A46DDE9108763
:10A4200093460446DDF84890FFF76AFD064694F827
:10A430003D0020287DD1B8F1000F7BD0002F79D0CE
:10A44000192301224FF002112046009601F0F7FF78
:10A4500000287DD194F83C00012879D0012084F8AF
:10A460003C0020680168C90703D1016841F001017F
:10A4700001602068016821F400610160212084F8F6
:10A480003D00402084F83E0000252564C4F8248067
:10A4900067853048E062608D2085CDE9009653469F
:10A4A0005A462046049901F053FF80B3206C84F88B
:10A4B0003C5004284AD008E032464946204602F083
:10A4C00064F830B1206C04283BD0032007B0BDE80D
:10A4D000F08F606A411C6162216800780861208DFC
:10A4E000401E80B22085618D491E618521684A69C0
:10A4F000D24352070BD468B1606A421C6262007892
:10A500000861208D401E2085608D401E6085208D55
:10A510000028D1D132464946204601F069FF002883
:10A52000D0D154F83D0B016841F400710160202046
:10A5300001E00DE00AE004F81E09E57765770020E8
:10A54000C4E72068016841F4007101600120BDE7A3
:10A550000220BBE70000FFFF30B4174A154C036828
:10A5600015490C321548A3420DD10B6843F4001372
:10A570000B600B6823F400130B60116821F40011C9
:10A580001160C02110E00E4CA34210D10B6843F4BF
:10A5900080030B600B6823F480030B60116821F4C7
:10A5A000001111604FF4406130BCFFF7FDBA30BCC0
:10A5B0007047000000540040183802400004024078
:10A5C00000580040F0B51F49DFF874C007681D4A05
:10A5D000083112230124032504261B4887B0674550
:10A5E00011D1176847F002071760126802F00202E3
:10A5F00005920A6842F400120A60096801F4001129
:10A600000591C02115E0DFF844C0674516D11768F1
:10A6100047F002071760126802F0020205920A680A
:10A6200042F480020A60096801F4800105914FF448
:10A6300040618DE87A006946FFF792FB07B0F0BDF4
:10A64000005400401C380240000402400058004002
:10A6500070B5040011D021684CF6CC400860216828
:10A6600045F255500860D4E9000141602168A068B6
:10A670008860FFF745FC054609E0012070BD00BF7A
:10A68000FFF73EFC401B302801D9032070BD206835
:10A69000C0680028F4D121684AF6AA20086000208A
:10A6A00070BD00684AF6AA210160002070470000D2
:10A6B00002480168491C016070470000E400002066
:10A6C000094810B5016841F004010160016841F0DA
:10A6D00002010160032000F051F80F2000F006F89D
:10A6E00000F015F8002010BD003C024010B50446F3
:10A6F00000F040FA4FF47A71B0FBF1F001F0ACFBDE
:10A7000000222146501E00F019F8002010BD7047AD
:10A7100000F01F02012191404009800000F1E0207B
:10A72000C0F88011704700F01F02012191404009DC
:10A73000800000F1E020C0F800117047F0B40E4B2B
:10A740001B680C46C3F30223C3F10705042D00D98F
:10A750000425191D072901D2002300E0DB1E012674
:10A7600006FA05F1491E214099409E40761E16408A
:10A770003143F0BC02F09EBA0CED00E0064900F057
:10A78000070208684FF6FF03184040EA0220034A18
:10A7900010430860704700000CED00E00000FA056F
:10A7A000BFF34F8F04480168044A01F4E06111438C
:10A7B0000160BFF34F8FFEE70CED00E00400FA05E7
:10A7C0000248006800F4C05070470000007000406C
:10A7D0000120010291FAA1F1024AB1FA81F142F895
:10A7E0002100704700000E42094A136823F003035A
:10A7F000034313600748026822F004020260012943
:10A8000003D040BF20BF20BF704730BF704700005B
:10A810000070004010ED00E02DE9F84F044600689C
:10A82000C10701D1800778D5DFF868810027D8F803
:10A830000000C0000BD4D8F8001041F08051C8F8D7
:10A840000010D8F80000012700F080500090524D11
:10A850002868C00510D4286840F480702860FFF78D
:10A860004FFB064605E000BFFFF74AFB801B64284C
:10A870005CD82868C005F7D5464E243E306861682C
:10A8800000F0C04001F0C042824204D1A26802F050
:10A89000C042824209D0C1F30140032805D130688B
:10A8A000800302D50120BDE8F88F3A4D10352868A5
:10A8B00010F4403052D001F44031814202D021786E
:10A8C000C90707D1A16801F44031814246D0207800
:10A8D000800743D528684FF4000292FAA2F1B1FA3A
:10A8E00081F14FEA810C2D494FF0010A8C4420F48C
:10A8F0004030CCF880A692FAA2F2B2FA82F201EBD2
:10A9000082010023C1F880362860C00526D5FFF7F4
:10A91000F7FA81464FF4007B0AE038E0FFF7F0FADF
:10A92000A0EB090141F28830814201D90320BAE746
:10A930009BFAABF0B0FA80F040F04001BAEB511F47
:10A9400001D1316800E029689BFAABF2B2FA82F2D9
:10A9500002F01F020AFA02F00142DFD06068C0F381
:10A960000141032906D1316800F0C04021F0C04107
:10A97000014331602868616801F440310843286070
:10A980002FB1D8F8001021F08051C8F80010002035
:10A9900089E7000024380240007000400000474270
:10A9A0002DE9F047DFF8BC8105460E46D8F80000D7
:10A9B00000F00100B04214D2012E05D1D8F80010E9
:10A9C00041F00401C8F80010D8F8001021F001018E
:10A9D0003143C8F80010D8F8000000F00100B04280
:10A9E00071D12878604C800705D52068A96820F0CF
:10A9F000F000084320602878C00771D05A4A5A4BAB
:10AA000069680120083A2C33022910D003292ED07E
:10AA100001292FD05FEA402797FAA7FCBCFA8CFCEB
:10AA20004CF0200C5FEA5C1C04D0126803E04FF489
:10AA30000037F1E71A6897FAA7F3B3FA83F303F044
:10AA40001F039840024262D0206820F003000843B0
:10AA50002060FFF755FA6968074641F288300229FD
:10AA600010D003291CD00129814626D034E04FF0B4
:10AA70000077D1E70227CFE7FFF742FAC11B49452C
:10AA800001D926E081462068C0F381000228F3D175
:10AA900026E000BFFFF734FAC11B494501D918E091
:10AAA00081462068C0F381000328F3D118E000BF7D
:10AAB000FFF726FAC11B49450BD82068C0F3810077
:10AAC0000128F5D10CE022E0FFF71AFAC11B494535
:10AAD00002D90320BDE8F087206810F00C0FF3D1F5
:10AAE000D8F80010404601F00101B14211D9012E01
:10AAF00003D1016841F004010160016821F0010106
:10AB000031430160006800F00100B04201D0012033
:10AB1000E0E72878400705D52068E96820F4E06080
:10AB2000084320602878000706D52068296920F4AA
:10AB3000605040EAC100206000F052F82168F02225
:10AB400092FAA2F201F0F001B2FA82F2D140074A81
:10AB5000515CC840064908600F20FFF7C7FD002080
:10AB6000B8E70000003C024008380240A145010857
:10AB700038000020014800687047000038000020BD
:10AB800008480949006809684FF4E06292FAA2F2A5
:10AB900001F4E061B2FA82F2D140044A515CC8404B
:10ABA000704700003800002008380240B145010815
:10ABB00008480949006809684FF4605292FAA2F205
:10ABC00001F46051B2FA82F2D140044A515CC840AB
:10ABD000704700003800002008380240B1450108E5
:10ABE0001E4A116801F00C00042813D0082813D065
:10ABF0000C2813D0101F006800F460414FF460402F
:10AC000090FAA0F0B0FA80F0C1404FF40040491C27
:10AC10008840704712487047124870474FF47013CD
:10AC200093FAA3F301F47010B3FA83F3D8400E4BF8
:10AC300001F440011268185C4FF4400393FAA3F347
:10AC4000B3FA83F3D940491CD20301D5054A00E089
:10AC5000034A5043B0FBF1F070470000083802404F
:10AC60000024F40000366E01984501082DE9F84FE4
:10AC700007460078FB4EFC4DC0074FF0010428D07A
:10AC8000F848083001684FF40038C1F38101022907
:10AC900007D00168C1F3810103291BD10068C003FB
:10ACA00018D598FAA8F0B0FA80F040F020004009DA
:10ACB00001D0306800E0286898FAA8F1B1FA81F173
:10ACC00001F01F0104FA01F108425CD07868002805
:10ACD0007BD058E0786801280AD008B1052811D047
:10ACE000306820F480303060306820F4802002E04A
:10ACF000306840F480303060786828B3FFF700F99E
:10AD000081460BE0306840F480203060F0E700BFFF
:10AD1000FFF7F6F8A0EB0900642872D898FAA8F0BB
:10AD2000B0FA80F040F02000400901D0306800E027
:10AD3000286898FAA8F1B1FA81F101F01F0104FA2C
:10AD400001F10842E4D01EE0FFF7DAF8814605E0A1
:10AD5000FFF7D6F8A0EB09006428DED898FAA8F02F
:10AD6000B0FA80F040F02000400901D0306800E0E7
:10AD7000286898FAA8F1B1FA81F101F01F0104FAEC
:10AD800001F10842E4D13878DFF8E08280074FF023
:10AD9000000B4FF002095FD5B24808300168C1F3DB
:10ADA0008101012907D00168C1F3810103291CD168
:10ADB0000068C00319D499FAA9F0B0FA80F040F005
:10ADC0002000400902D0306801E086E0286899FA46
:10ADD000A9F1B1FA81F101F01F0104FA01F1084271
:10ADE0002BD0F868012878D127E0F868A8B394FA46
:10ADF000A4F0B0FA80F048F82040FFF781F88246CE
:10AE000006E066E1FFF77CF8A0EB0A00022884D890
:10AE100099FAA9F1B1FA81F141F02001490901D073
:10AE2000316800E0296899FAA9F0B0FA80F000F0E2
:10AE30001F0004FA00F00142E4D08A48001D0168B6
:10AE40004FF4F85393FAA3F33A69B3FA83F321F476
:10AE5000F8519A401143016025E0FFE794FAA4F10C
:10AE6000B1FA81F148F821B0FFF74AF8824605E0CF
:10AE7000FFF746F8A0EB0A000228C8D899FAA9F013
:10AE8000B0FA80F040F02000400901D0306800E0C6
:10AE9000286899FAA9F1B1FA81F101F01F0104FAC9
:10AEA00001F10842E4D138784FF4007AC0067CD52D
:10AEB0006C480830006810F00C0F0FD0B9694FF4DF
:10AEC0008070002972D090FAA0F0B0FA80F048F8B3
:10AED0002040FFF715F800907EE087E09AFAAAF08C
:10AEE000B0FA80F040F02000400901D0306800E066
:10AEF00028689AFAAAF1B1FA81F101F01F0104FA67
:10AF000001F1084202D0B86900286FD05548396A6B
:10AF1000001D006800F4604081421AD9084602F022
:10AF20000DF8002862D14F48001D01683A6A21F4EB
:10AF300060411143016001684FF07F4393FAA3F32E
:10AF4000FA69B3FA83F321F07F419A40114301601B
:10AF500018E04448001D026822F460420A4302607F
:10AF600001684FF07F4393FAA3F3FA69B3FA83F3CE
:10AF700021F07F419A4011430160386A01F0DEFF01
:10AF80000028CFD14FF4604191FAA1F1386AB1FAAB
:10AF900081F1C8404FF40041401C814031480830E5
:10AFA0000068F02200F0F00001E070E040E092FA6A
:10AFB000A2F2B2FA82F2D0402D4A105CC1402D4874
:10AFC00001600F20FFF792FB61E000BFFEF798FFE2
:10AFD0000099401A02287CD89AFAAAF0B0FA80F0B8
:10AFE00040F02000400902D0306801E0BCE1286850
:10AFF0009AFAAAF1B1FA81F101F01F0104FA01F104
:10B000000842E3D01748001D01683A6A21F4604104
:10B010001143016001684FF07F4393FAA3F3FA698B
:10B02000B3FA83F321F07F419A40114301602EE08F
:10B0300090FAA0F0B0FA80F048F820B0FEF760FF78
:10B04000009005E0FEF75CFF0099401A0228C2D884
:10B050009AFAAAF0B0FA80F040F0200040090BD034
:10B0600030680AE0003802403438024000004742AD
:10B07000A14501083800002028689AFAAAF1B1FA1F
:10B0800081F101F01F0104FA01F10842DAD13878A8
:10B09000000753D5786948B394FAA4F0B0FA80F069
:10B0A00008EB8000C0F88046FEF72AFF009005E01C
:10B0B000FEF726FF0099401A02288CD899FAA9F0C9
:10B0C000B0FA80F040F04000B4EB501F02D130687D
:10B0D00001E08EE0286899FAA9F1B1FA81F101F056
:10B0E0001F0104FA01F21042E2D027E094FAA4F121
:10B0F000B1FA81F108EB8101C1F880B6FEF700FFDB
:10B10000009005E0FEF7FCFE0099401A022870D876
:10B1100099FAA9F0B0FA80F040F04000B4EB501F6B
:10B1200001D1306800E0286899FAA9F1B1FA81F1FB
:10B1300001F01F0104FA01F21042E3D13878400710
:10B140007BD59B484FF000090068C0000AD498489E
:10B15000016841F08051016000684FF0010900F082
:10B160008050009093480168C90511D4016841F4EA
:10B1700080710160FEF7C4FE009005E0FEF7C0FE9E
:10B180000099401A642834D88A480068C005F5D56B
:10B19000B86801280AD008B1052811D0286820F421
:10B1A00080702860286820F4806002E0286840F4FD
:10B1B00080702860B86848B3FEF7A2FE00900DE0EA
:10B1C000286840F480602860F0E700BFFEF798FE32
:10B1D0000099411A41F2883081420AD89AFAAAF0BD
:10B1E000B0FA80F040F04000B4EB501F02D130685C
:10B1F00001E095E028689AFAAAF1B1FA81F101F02C
:10B200001F0104FA01F21042E0D022E0FEF778FEBE
:10B21000009007E0FEF774FE0099411A41F2883071
:10B2200081427DD89AFAAAF0B0FA80F040F040004E
:10B23000B4EB501F02D1306801E012E028689AFA9E
:10B24000AAF1B1FA81F101F01F0104FA01F21042F2
:10B25000E0D1B9F1000F04D05548016821F08051C8
:10B260000160786AE8B3DFF84891A9F11C09D9F8C0
:10B270000010C1F38101032976D002284FF08071BC
:10B280004FF0007A58460BD091FAA1F1B1FA81F152
:10B2900048F82100FEF734FEB046074656466DE0FA
:10B2A0004FF0807191FAA1F1B1FA81F18A0042491F
:10B2B0005050FEF725FEB3468046564606E000BFD6
:10B2C000FEF71EFEA0EB0800022854D896FAA6F05E
:10B2D000B0FA80F040F02000400903D0DBF8000015
:10B2E00001E061E0286896FAA6F1B1FA81F101F077
:10B2F0001F0104FA01F10842E2D1D7E90A103A6BC2
:10B30000D9F80030014323F47D031A431143C9F8EF
:10B3100000104FF0807090FAA0F0B0FA80F000E0DA
:10B3200029E0810024480C50FEF7EAFD074604E0BE
:10B33000FEF7E6FDC01B02281DD896FAA6F0B0FA6B
:10B3400080F040F02000400902D0DBF8000000E06F
:10B35000286896FAA6F1B1FA81F101F01F0104FA0A
:10B3600001F10842E4D01FE020E000BFFEF7C8FD75
:10B37000C01B022802D90320BDE8F88F96FAA6F078
:10B38000B0FA80F040F02000400902D0D8F8000068
:10B3900000E0286896FAA6F1B1FA81F101F01F01E8
:10B3A00004FA01F10842E1D10020E5E70120E3E7DA
:10B3B00024380240007000400000474270470000FF
:10B3C00003488068002801D007F0E6BC7047000001
:10B3D0005800002010B5044600688168C9040CD5E7
:10B3E000C068C00509D52046FFF7EAFF2068C1689C
:10B3F00001F0800161F4C071C16020688168890436
:10B400000CD5C068800509D52046FFF7D7FF206816
:10B41000C16801F0800161F42071C16003494FF4FB
:10B42000003008600120607710BD00001404014066
:10B4300010B500680B4641680D480140080CD870F3
:10B44000C1F304245C7001F03F049C70C1F34231ED
:10B45000197052B901F0B4FDD870587801F0B0FD00
:10B460005870987801F0ACFD9870002010BD000075
:10B470003FFFFF0010B50C460168896A89B2616020
:10B4800001680969C1F30E01A160006801680E48F6
:10B490000140C1F305402070C1F30623637001F041
:10B4A0007F03A370402303EA1141E17052B901F018
:10B4B00087FD2070607801F083FD6070A07801F056
:10B4C0007FFDA070002010BD7F7F7F0070B504005D
:10B4D00002D0607F10B106E0012070BD002020770F
:10B4E000204600F041F8022060772168CA204862B7
:10B4F000216853204862204601F076FDFF21002894
:10B50000206803D0416204206077E5E78268154B2C
:10B510001A4082602268906863681843D4E9043551
:10B520002B43184390602268E0681061206802692C
:10B53000238942EA034202612068C26822F0800245
:10B54000C2602068026C22F4802202642068026CCF
:10B55000A3691A43026420684162012060770020D9
:10B5600070BD0000BFFF8FFF10B500681E4992B08C
:10B57000884236D11D48016841F080510160006861
:10B5800000F080501090FFF723F90C20009000206D
:10B5900001240990029405946846FFF767FB10B1F7
:10B5A00013A0FEF731F84FF48030CDE90D400DA81F
:10B5B000FFF732F910B113A0FEF726F84FF4800020
:10B5C00090FAA0F01849B0FA80F001EB8000C0F8C2
:10B5D000804600220A212920FFF7B0F82920FFF732
:10B5E000A2F812B010BD000000280040243802402C
:10B5F0004F7363436F6E666967206661696C65644B
:10B600000D0A000052544320636C6F636B20736F0C
:10B610007572636520636F6E666967206661696C29
:10B6200065640D0A00000000000047422DE9F05F4C
:10B630000446007F0D46012848D0012020770220D3
:10B6400060772068002780684FEA4060EAB30028EE
:10B6500059DA287801F0B4FC95F8200001F0B0FC2C
:10B66000A8782978EA7840EA01406978090241EA35
:10B670000241084395F8201040EA0166E869A9698B
:10B68000064368690643686840EA01082168CA20E1
:10B690004862216853204862686AFF25B0F5807FC0
:10B6A00020684FF0030B4FF47A7A81682DD021F493
:10B6B000007181602068C16801F0800161F420712F
:10B6C000C160FEF71DFC814655E002E00220BDE8A6
:10B6D000F09F002800DBEF70287801F07AFC060468
:10B6E000687801F076FC46EA0026A87801F071FC43
:10B6F0000643E87846EA004695F8200001F069FC28
:10B7000046EA0066BAE7EF70A6E721F4807181602F
:10B710002068C16801F0800161F4C071C160FEF76A
:10B72000EFFB814606E000BFFEF7EAFBA0EB090055
:10B73000504519D82068C068C007F5D02068C66198
:10B740002168C1F844802068816841F4807181607B
:10B750002068816841F480511FE000BFFEF7D0FBF4
:10B76000A0EB0900504506D92068456284F81DB059
:10B7700027770320ABE72068C0688007EED52068F4
:10B7800006622168C1F848802068816841F4007130
:10B7900081602068816841F4005181600848016837
:10B7A00041F40031016006480830016841F400317D
:10B7B000016020684562012060772777002086E7D6
:10B7C000000401402DE9F0470446007F0B460128A4
:10B7D00025D04FF0010984F81C900220607758783A
:10B7E00002B301F0EDFB987801F0EAFB9878D97884
:10B7F00040EA014558781978000240EA4130054393
:10B800002168CA204862216853204862204601F01E
:10B81000EBFB0026FF274FF0040838BB19E002209D
:10B82000BDE8F087C10603D500F0EF000A3058707C
:10B83000D87801F0CEFB0204587801F0CAFB42EA46
:10B840000022987801F0C5FB0243187842EA40359F
:10B85000D6E70D480540206845602068C16821F0A2
:10B860008001C160204600F085F830B12068476251
:10B8700084F81D8026770120D2E72068476284F88B
:10B880001D9026770020CBE73FFFFF002DE9F04712
:10B890000446007F0D46012811D04FF0010A84F8BC
:10B8A0001CA0022060772068002680684FEA406074
:10B8B00042B100281ADA287801F082FB17E0022052
:10B8C000BDE8F087002800DBEE70287801F081FBEE
:10B8D0000204687801F07DFB42EA0022A87801F0BA
:10B8E00078FB0243E87842EA00470AE0EE70A87865
:10B8F000297840EA01476878E978000240EA014087
:10B9000007432168CA2048622168532048622046C4
:10B9100001F06AFB4FF0FF084FF00409C0B914486A
:10B920000740206807602068816821F480218160D9
:10B93000D5E90301084321688A68104388602068BC
:10B94000C16821F08001C160204600F013F838B1D1
:10B950002168C1F8248084F81D9026770120AFE784
:10B960002168C1F8248084F81DA026770020A7E76D
:10B970007F7F7F0070B5044600688168890614D413
:10B98000C16821F0A001C160FEF7BAFA05464FF484
:10B990007A7606E0FEF7B4FA401BB04201D90320E4
:10B9A00070BD2068C0688006F4D5002070BD10B559
:10B9B00004000ED02068016821F04001016020469B
:10B9C00000F04EF80020606584F8510084F85000C3
:10B9D00010BD012010BD90F85100704770B50400F3
:10B9E00004D094F85100002510B106E0012070BD8C
:10B9F00084F85050204600F034F8022084F85100BA
:10BA00002068016821F040010160D4E90101084388
:10BA1000D4E903121143084361690843218B01F4FF
:10BA200000710843E1690843216A0843A16A084399
:10BA300021680860A069042101EA1040616A084396
:10BA4000216848602168E06A08612068C16921F4C2
:10BA50000061C1616565012084F85100002070BD5E
:10BA6000704770472DE9F843044690F85100984616
:10BA700001286ED139B332B394F85000012868D050
:10BA8000012684F85060122084F851000025656575
:10BA90002163A286E286E564A564A563A587E587A0
:10BAA000A06A7703B84209D12068016821F40051E7
:10BAB00001602068016841F400510160A068B0F5A0
:10BAC000004F03D007E00120BDE8F883206801683B
:10BAD00041F48041016020680168490603D401688F
:10BAE00041F040010160E0680028606804D0D0B1F6
:10BAF000E08E012817D020E010B1E08E012808D197
:10BB0000206B411C216321680078C860E08E401ED4
:10BB1000E086E08EF0B1434600220221204601F08B
:10BB2000CBFCA0B9ECE7206B21680088C860206BD3
:10BB3000801C2063E08E401EE086E08E50B14346BC
:10BB400000220221204601F0B7FC0028EBD00320A0
:10BB5000BAE726E0A06AB84204D12068016841F43F
:10BB600080510160434600220221204601F0A4FCDE
:10BB700030B9434601228021204601F09DFC20B1CE
:10BB8000606D40F020006065E1E7A06818B92068AA
:10BB9000C1688068009084F8516084F8505000209B
:10BBA00092E7022090E72DE9F8430025DDF8208098
:10BBB0000446ADF8005090F85100012803D094F8E5
:10BBC000510022287DD169B162B15BB194F8500077
:10BBD000012876D0012684F8506094F8510001289D
:10BBE00003D005E00120BDE8F883322084F851003D
:10BBF0006565A263A387E3872163A386E386A564C3
:10BC0000E564A06A4FF40057B84209D12068016882
:10BC100021F4005101602068016841F40051016085
:10BC200020680168490603D4016841F040010160C1
:10BC3000E0684FF48271B0F5006F606807D00028AB
:10BC400067D088426ED1E08E012862D06AE020B1D0
:10BC500088420CD1E08E012809D1206B2168008830
:10BC6000C860206B801C2063E08E401EE086E08E62
:10BC700040BBA06AB84244D12068016841F48051B9
:10BC800001603EE02068C068A16B0880A06B801C4A
:10BC9000A0639EE0434600220221204601F00CFCF6
:10BCA000002874D1206B21680088C860206B801C3C
:10BCB0002063E08E401EE086E08E50B9A06AB84254
:10BCC00001E0C7E017E004D12068016841F4805129
:10BCD0000160434600220121204601F0EDFB0028CF
:10BCE0006FD12068C068A16B0880A06B801CA06326
:10BCF000E08F401EE087E08E0028CBD160680028EE
:10BD00006AD1434600220121204601F0D5FBF0BB59
:10BD1000B8E7206B411C216321680078C860E08E81
:10BD2000401EE086E08E98BBA06AB84204D120682D
:10BD3000016841F480510160434600220121204600
:10BD400001F0BAFB18BB2068C068A16B087040E026
:10BD5000434600220221204601F0AEFBB8B9206B19
:10BD6000411C216321680078C860E08E401EE08697
:10BD7000E08E38B9A06AB84204D12068016841F465
:10BD800080510160002243460121204601E018E075
:10BD90000BE001F091FBA0B92068C268A06B411CC8
:10BDA000A1630270E08F401EE087E08E0028CFD1B3
:10BDB000606888B9434600220121204601F07CFBDF
:10BDC00008B103200FE72068C168A06B421CA26382
:10BDD0000170E08F401EE087A06AB84210D1434650
:10BDE00000220121204601F067FB18B1606D40F090
:10BDF00002000FE02068C068ADF80000BDF8000048
:10BE0000434601228021204601F056FB20B1606D9F
:10BE100040F020006065D4E784F85160A06AB84221
:10BE200014D120688168C943C9060FD4616D41F0FF
:10BE300002016165016821F4005101602068016818
:10BE400041F40051016084F85050CBE684F8505022
:10BE50000020C8E60220C6E610B5401EB0F1807F83
:10BE600001D3012010BD4FF0E02460610F21601765
:10BE700000F020FF0020A06107202061002010BDFD
:10BE8000704770B50446006801694FF00005C9436A
:10BE9000890715D4C168C943890711D4E91E016116
:10BEA00001202075206880698007204602D0FFF7B6
:10BEB000E7FF04E000F078F8204600F076F82575FA
:10BEC00020680169C943490717D4C168C9434907B4
:10BED00013D46FF00401016102202075206880698D
:10BEE00010F4407F204602D0FFF7CAFF04E000F0C4
:10BEF0005BF8204600F059F8257520680169C943B0
:10BF0000090716D4C168C943090712D46FF00801A4
:10BF10000161042020752068C0698007204602D096
:10BF2000FFF7AEFF04E000F03FF8204600F03DF8D8
:10BF3000257520680169C943C90617D4C168C9437A
:10BF4000C90613D46FF01001016108202075206824
:10BF5000C06910F4407F204602D0FFF791FF04E053
:10BF600000F022F8204600F020F8257520680169CD
:10BF7000C943C90708D1C168C943C90704D1891E8B
:10BF80000161204600F012F820680169C9434906A2
:10BF900009D4C168C943490605D46FF04001016165
:10BFA000204600F004F870BD704770477047704736
:10BFB000704770B5040004D094F83900002510B122
:10BFC00006E0012070BD84F83850204600F020F8CB
:10BFD000022084F839002068C16821F40051C16052
:10BFE000204603F021FC2068016921F490410161A1
:10BFF0002068416921F02A0141612068C16841F44B
:10C000000051C160E563012084F83900002070BD53
:10C01000F0B5424A07684249022301240325072656
:10C02000404887B0974223D10A1D176847F48047DC
:10C030001760126802F4804205920A6842F0010219
:10C040000A60096801F00101059169028DE87A0032
:10C050006946FDF785FE34480068C16841F020015B
:10C06000C16000220E212520FEF768FB252028E074
:10C070002B4ADFF8B8C00832674526D1176847F465
:10C0800000371760126802F4003205920A6842F025
:10C0900001020A60096801F0010105910C218DE897
:10C0A0007A006946FDF75CFE1F4840300068C168B1
:10C0B00041F02001C16000220E212620FEF73EFB48
:10C0C0002620FEF730FB07B0F0BD19488742FAD1B1
:10C0D000106840F480201060106800F48020059003
:10C0E000086840F0040008600868694600F0040031
:10C0F00005904FF440608DE879000E48FDF730FE62
:10C10000094880300068C16841F02001C160002208
:10C110000E212720FEF712FB2720D2E7003801402E
:10C120001C38024000000240981C002000440040DF
:10C1300000480040000802402DE9F047044690F80E
:10C14000390099460D46012801D0222858D12DB337
:10C1500022B394F83800012852D0012684F83860C0
:10C160000027E76394F8390022281AD05FF0120004
:10C1700084F83900A284E2844FF48058E08C4B4666
:10C18000401EE084A0684FF0000240454FF080015F
:10C19000204613D103F098FC08BB04E00120BDE861
:10C1A000F0873220E4E728882168C0F3080048605F
:10C1B000206908B16D1C08E0AD1C06E003F084FCAA
:10C1C00068B9216815F8010B4860E08C0028D5D1CA
:10C1D0004B4600224021204603F076FC08B10320A4
:10C1E000DDE794F83900322806D084F8396000BFC2
:10C1F00084F838700020D2E7222084F83900F7E76D
:10C200000220CCE7FEE70000094808494FF48042CD
:10C2100001600849416000218160C0E90312416169
:10C220008161C1610162FDF78BBE000000540040D6
:10C23000DC1D0020801A060001684A69D2435205BD
:10C240000CD46FF480624A6104210164002140F83B
:10C25000301F202242730173012070470020704775
:10C260002DE9F84F0446006889460B9D0168984601
:10C27000174641F4806101602068016841F48071D3
:10C28000016000954FF0011A0022514620460A9B9A
:10C2900000F0D5F8F0BB216809F0FE0008610AF152
:10C2A000010B2B46594620460A9A00F0F9F818B1BE
:10C2B000206C042812D03AE020684169806900901F
:10C2C0002A4620460A9900F060F950B1206C0428F3
:10C2D0002DD12068016841F4007101600120BDE8A2
:10C2E000F88FFEB2B8F1010F09D02168380A086151
:10C2F0002A4620460A9900F048F90028E6D120682D
:10C3000006612A4620460A9900F03FF90028DDD14F
:10C31000206800E00BE0016841F480710160009545
:10C320000022514620460A9B00F089F808B10320FC
:10C33000D5E7216809F0FF0040F0010008612B46B5
:10C34000594620460A9A00F0ABF80028B0D1C6E75B
:10C350002DE9F843044600680D46DDE908970168B9
:10C360009846164641F4807101604B4600224FF01A
:10C3700001112046009700F062F8E8B9216805F045
:10C38000FE0008613B464A461849204600F088F8FE
:10C3900028B1206C04280FD10120BDE8F883206863
:10C3A0004169806900903A464946204600F0EDF820
:10C3B00020B1206C042813D00320EEE7F5B2B8F1C9
:10C3C000010F09D02168300A08613A4649462046E3
:10C3D00000F0DBF80028ECD1206805610020DCE7E4
:10C3E0002068016841F400710160D5E70200010096
:10C3F00070B516460D4604461AE02046FFF71CFFAE
:10C4000008B1012070BD681C12D025B1FDF778FD80
:10C41000801BA8420CD954F8400F40F0200044F88B
:10C42000100900202060202161732073032070BD5B
:10C4300020684069C0434007DFD4002070BD2DE96B
:10C44000F0471E4690460D460446C1F30747DDF807
:10C45000209012E0701C10D02EB1FDF751FDA0EB22
:10C460000900B04209D9002044F8300F202161733F
:10C47000A07320730320BDE8F0872068012F0AD045
:10C48000806925EA00000004000C06D00021414527
:10C49000E0D00020EFE74069F3E70121F7E7000073
:10C4A0002DE9F0479A4691460D46044600264FF086
:10C4B0002008C1F307472AE020684069C0434005CF
:10C4C00012D42068016841F40071016021686FF4A2
:10C4D0008060486104202064266384F83D8084F8ED
:10C4E0003C600120BDE8F087B9F1FF3F0FD0B9F102
:10C4F000000F05D0FDF704FDA0EB0A01494506D960
:10C5000044F8306F84F80D8026730320EAE7206832
:10C51000012F07D0D0F8180025EA00000004000C15
:10C52000E0D0C9E74069F7E72DE9F04100259046E2
:10C530000E460446202721E04069C043C0060CD4C3
:10C5400021686FF0100048612564256384F83D7010
:10C5500084F83C500120BDE8F0812EB1FDF7D0FCFD
:10C56000A0EB0800B04209D954F8400F40F0200079
:10C5700044F80409677025700320ECE720684169DE
:10C58000C9434906D8D40020E5E770B516460D46E4
:10C5900004461AE02046FFF74FFE08B1012070BDA7
:10C5A000681C12D025B1FDF7ABFC801BA8420CD94A
:10C5B00054F8400F40F0200044F81009002020609B
:10C5C000202161732073032070BD20684069C0433F
:10C5D0000006DFD4002070BD054804490160042135
:10C5E000416040F6FF718160FEF732B800300040D4
:10C5F000781D002070B586B014216846FBF719FE3F
:10C600002D4C206840F0020020602068651500F085
:10C61000020005900120CDE9005002900320039014
:10C6200069462648FDF79CFB206840F0100020601A
:10C630002068234E00F010000590E0140090694639
:10C640003046FDF78DFB206840F010002060206828
:10C65000694600F010000590A01500903046FDF7E7
:10C660007FFB206840F0100020602068009500F0FB
:10C670001000059069463046FDF772FB206840F0D7
:10C68000100020602068694600F010000590201519
:10C6900000903046FDF764FB206840F010002060F9
:10C6A0002068694600F010000590FF200090304699
:10C6B000FDF756FB06B070BD1C3802400004024076
:10C6C00000100240C143C9B240EA014001498861FB
:10C6D00070470000001002402DE9F04100241F4681
:10C6E00016460D46072900D9072103292DD8290709
:10C6F000090E4006050E01F1400808F0FF0000F0A9
:10C7000051F905F1B800C0B200F04CF9305D07B145
:10C71000C043C0B200F072F9641CE4B2102CF5D32F
:10C7200008F0FF0000F03EF9B935E8B200F03AF940
:10C730001024305D07B1C043C0B200F05FF9641C43
:10C74000E4B2202CF5D3BDE8F0812D1F2907090E96
:10C750004006050E01F1400808F0FF0000F07AF9EC
:10C7600005F1B800C0B200F075F9305D07B1C04303
:10C77000C0B200F09BF9641CE4B2102CF5D308F0B1
:10C78000FF0000F067F9B935E8B200F063F9102452
:10C79000305D07B1C043C0B200F088F9641CE4B258
:10C7A000202CF5D3CFE72DE9F047174698460C46E5
:10C7B00005460026DDF8209012E0082C05D36D1CFC
:10C7C0000024EDB2042D00D3002508EB46124B46A1
:10C7D00021462846FFF780FF641C761CE4B2F6B2BF
:10C7E000BE42EAD3BDE8F0872DE9F0411E4600F0D5
:10C7F000070301F00F003949082801EB021434D275
:10C80000C00040305F00804600F0CCF807F1B8006F
:10C81000C0B200F0C7F8002504EB0500A0F5805079
:10C8200090F8000E06B1C043C0B200F0E7F86D1CEE
:10C83000EDB2082DF0D3404600F0B4F8B937F8B2A5
:10C8400000F0B0F85FF0080504EB0500A0F580509B
:10C8500090F8000E06B1C043C0B200F0CFF86D1CD6
:10C86000EDB2102DF0D3BDE8F0810838C006000EFF
:10C8700000F140085F0008F0FF0000F0EBF807F15E
:10C88000B800C0B200F0E6F85FF0000504EB050068
:10C89000A0F5805090F8000E06B1C043C0B200F081
:10C8A00005F96D1CEDB2082DF0D308F0FF0000F083
:10C8B000D1F8B937F8B200F0CDF8082504EB05003F
:10C8C000A0F5805090F8000E06B1C043C0B200F051
:10C8D000EDF86D1CEDB2102DF0D3C4E79C460108B5
:10C8E00070B50646C02000F05DF8C02000F0B2F838
:10C8F0005FF0000404F1B805E8B200F053F84020FE
:10C9000000F050F8E8B200F0A5F8402000F0A2F8DE
:10C910000025304600F072F8304600F0C7F86D1C74
:10C92000EDB2402DF5D3641CE4B2082CE2D370BD07
:10C9300010B5FFF75FFE3F2000F034F8C02000F094
:10C9400031F83F2000F086F8C02000F083F8002086
:10C95000FFF7C6FFB82000F025F8402000F022F8CD
:10C96000B82000F077F8BDE81040402000F072B821
:10C970002DE9F0411E46154604460EE004F007047A
:10C9800001F03F07334639462046FFF72DFF791C5B
:10C990006D1C0F2901D90021641C2A78002AEDD1D1
:10C9A000BDE8F08170B5144C0646012251022046C4
:10C9B000FDF7A1FA002221152046FDF79CFAE514A7
:10C9C000002229462046FDF796FA0022A1152046AE
:10C9D000FDF791FA3046FFF775FE01222946204601
:10C9E000FDF789FAFCF7E6FC29462046BDE87040D1
:10C9F0000022FDF780BA00000010024070B5144C10
:10CA00000646012251022046FDF775FA0022211543
:10CA10002046FDF770FAE514002229462046FDF76E
:10CA20006AFA012211022046FDF765FA3046FFF747
:10CA300049FE012229462046FDF75DFAFCF7BAFCC3
:10CA400029462046BDE870400022FDF754BA000098
:10CA50000010024070B5144C064600224FF40071DD
:10CA60002046FDF748FA012291022046FDF743FADD
:10CA7000E514002229462046FDF73DFA0022A115C3
:10CA80002046FDF738FA3046FFF71CFE0122294602
:10CA90002046FDF730FAFCF78DFC29462046BDE81C
:10CAA00070400022FDF727BA0010024070B5144C08
:10CAB000064600224FF400712046FDF71CFA0122C1
:10CAC00091022046FDF717FAE51400222946204678
:10CAD000FDF711FA012211022046FDF70CFA30464B
:10CAE000FFF7F0FD012229462046FDF704FAFCF786
:10CAF00061FC29462046BDE870400022FDF7FBB9E5
:10CB00000010024010B514488AB012490024C0E950
:10CB100000147F218160FF21C0E903144461846116
:10CB2000FEF7D4FC4FF48070099001208DF82000AE
:10CB3000800707904FF0803005904FF070600194AF
:10CB400006900094002269460348FEF76FFD0AB084
:10CB500010BD000000280040581D002070B504469C
:10CB60000025D9B1012904D0022911D0032915D1FA
:10CB700011E0606990B10F4908614580058000208F
:10CB8000FFF7AEFE0B480C49083005F013FC05E03A
:10CB90002088401E01E02088401C2080B4F900005D
:10CBA000002802DA0220208070BD0228FCDD2580EA
:10CBB00070BD00003C0000206C0200201CB5044643
:10CBC0002B4882784178CDE90012C37829A28021D0
:10CBD0002E4803F081FB00232C4A19461846FFF724
:10CBE000C7FE2A48283882784178CDE900120378B8
:10CBF00027A28021283003F06FFB0023234A194627
:10CC00000120FFF7B5FE2088022826D0002002224E
:10CC10000090244B03211046FFF7C5FD2088F0B19A
:10CC200000200090204B022201210320FFF7BBFDD2
:10CC30002088012800D0002000901C4B02220521F2
:10CC40000320FFF7B0FD1148B4F90010C83069B1F6
:10CC5000012906D0022909D106E00120D7E70120E9
:10CC6000DFE70A48983001E00848B03060611CBD39
:10CC7000400000202020203230253032752D253014
:10CC800032752D25303275202020000080020020D2
:10CC900020202020253032753A253032753A253053
:10CCA000327500006C4E0108AC4E0108EC4E0108D4
:10CCB000FEE770470907090E002806DA00F00F00AA
:10CCC00000F1E02080F8141D704700F1E02080F8AA
:10CCD000001470477CB500260C4605460096019668
:10CCE00007226946022000F09BF8002863D19DF8D6
:10CCF000000000F07F0000F063F9A8709DF80100CB
:10CD000000F07F0000F05CF968709DF8020000F010
:10CD10003F0000F055F928709DF8030000F03F0037
:10CD20008DF8030000F04CF9A0709DF8040000F0AD
:10CD3000070000F045F920709DF8050000F01F0085
:10CD400000F03EF960709DF8060000F039F9E070DF
:10CD50002078072100B92170A8783B2800D9AE704F
:10CD600068783B2800D96E702878172800D92E7073
:10CD7000A078401E1F2801D30120A0702078012830
:10CD80000CD002280AD0032808D0042806D0052891
:10CD900004D0062802D0072800D021706078401EF9
:10CDA0000C2803D3012000F00BF96070E0786328B1
:10CDB00000D9E67000207CBD1FB5002400940194CA
:10CDC00002940394FFF720FA1449134808608DF881
:10CDD000004013208DF8010002226946002000F077
:10CDE0007DF8002816D180208DF809008DF80A0002
:10CDF0008DF80B008DF80C008DF80D4082208DF819
:10CE00000E0001208DF80F00072209200DF1090105
:10CE100000F064F804B010BDDC1D0020DC00002030
:10CE20002DE9FE43124C4FF496761746884681460C
:10CE300032463346A2212068FDF724F905000AD0C6
:10CE4000022D05D12068FDF761F82068FDF778F81C
:10CE50002846BDE8FE83CDF80080CDE901760123A8
:10CE60004A46A2212068FDF7B9F90500E8D1F0E7AC
:10CE7000DC0000207CB5054600200C4600900190A7
:10CE80000978072900D12070A87800F0A2F88DF861
:10CE90000000687800F09DF88DF80100287800F017
:10CEA00098F88DF80200A07800F093F88DF8030050
:10CEB000207800F08EF88DF80400607800F089F892
:10CEC0008DF80500E07800F084F88DF80600072260
:10CED0006946022000F002F87CBD00002DE9FE4307
:10CEE000124C4FF4967617468846814632463346B2
:10CEF000A2212068FDF7C6F805000AD0022D05D151
:10CF00002068FDF703F82068FDF71AF82846BDE809
:10CF1000FE83CDF80080CDE9017601234A46A221A7
:10CF20002068FDF777FA0500E8D1F0E7DC00002083
:10CF3000704701210846FDF757BC0000F8B50746C9
:10CF40001A48002600681A4D10F0F00F20D1174C37
:10CF50001C342068C00002D5FDF732FC0DE02068CB
:10CF600040F080502060206800F080500090FDF775
:10CF700027FC216821F080512160B0F5C05F07D106
:10CF8000B7F5404F04D12868012640F0040028601E
:10CF9000286820F0010030432860286800F0010074
:10CFA000B04201D00120F8BD0020F8BD0838024091
:10CFB000003C02400148FEF70DBA0000581D002059
:10CFC000010901EB810100F00F0000EB4100C0B24C
:10CFD0007047002102E00A38C0B2491C0A28FAD280
:10CFE000090740EA1160704770B504460068C168DF
:10CFF000490614D44FF0FF31C160FCF781FF0546AC
:10D000004FF47A7607E000BFFCF77AFF401BB0428E
:10D0100001D9032070BD2068C0684006F4D5002007
:10D0200070BD00007FB500250446FF262B46324622
:10D0300029460A2000F0A2F918B9FE2000F078F97C
:10D0400020B100F0C7F904B0304670BD4FEA0D06BC
:10D0500000F056F970556D1C102DF9D3FF2000F02B
:10D0600079F9FF2000F076F9002600F0B3F99DF879
:10D07000000020709DF801000002608060889DF82B
:10D080000210084360809DF803000006606060683D
:10D090009DF8041040EA0140606060689DF805104A
:10D0A00040EA0120606060689DF8061008436060F7
:10D0B0009DF8070020729DF8080060729DF8090035
:10D0C0000006E060E0689DF80A1040EA0140E06078
:10D0D000E0689DF80B1040EA0120E060E0689DF8F0
:10D0E0000C100843E060217C9DF80D0041EA10110E
:10D0F00021740007000D6082608A9DF80E100843BD
:10D1000060829DF80F0040082075012060759AE745
:10D110007FB500260446FF2533462A4631460920BE
:10D1200000F02CF918B9FE2000F002F920B100F04F
:10D1300051F904B0284670BD4FEA0D0500F0E0F843
:10D14000A855761C102EF9D3FF2000F003F9FF201C
:10D1500000F000F9002500F03DF99DF8000081097C
:10D160002170C0F38301617000F00300A0709DF88E
:10D170000100E0709DF8020020719DF803006071CD
:10D180009DF804000001E080E1889DF8050041EA77
:10D190001011E18000F00F0020729DF80600C10917
:10D1A0006172C0F38011A172C0F34011E172C0F34B
:10D1B00000112173002161738007000D2061206937
:10D1C0009DF8072040EA8200206122699DF808004E
:10D1D00042EA90122261C0F3C202227500F00700F9
:10D1E00060759DF809004209A275C0F38202E275DC
:10D1F0008007400F2076227E9DF80A0042EAD01276
:10D200002276C0F3801262768006400EA076A27E5F
:10D210009DF80B0042EAD012A27600F07F00E07683
:10D220009DF80C00C2092277C0F341126277C0F367
:10D230008202A2778007000FE077E27F9DF80D0061
:10D2400042EA9012E277C0F3401284F8202084F87A
:10D25000211000F0010084F822009DF80E00C109A1
:10D2600084F82310C0F3801184F82410C0F3401117
:10D2700084F82510C0F3001184F82610C0F3810152
:10D2800084F8271000F0030084F828009DF80F00B0
:10D29000400884F82900012084F82A0049E70000AA
:10D2A00030B587B014216846FAF7C3FF124800244E
:10D2B000016841F0080101600068104D00F00800AD
:10D2C00005902020009001200190029003200390FF
:10D2D00069462846FCF744FD00F048F90122202168
:10D2E0002846FCF708FEFF2000F034F8641CE4B286
:10D2F000092CF8D907B030BD1C380240000C0240A0
:10D300000EB500200190401E02900748012301AA9B
:10D310000068009002A90548FEF745FC08B100F03E
:10D320001BF90198C0B20EBDE0000020841D002052
:10D3300070B505464FF6FF7400E0641EFFF7E0FF8E
:10D34000A84202D0002CF8D102E00CB1002070BD40
:10D35000032070BD08B501228DF80000054869461C
:10D3600003680548FEF77EFB002801D000F0F4F8C2
:10D3700008BD0000E0000020841D00207CB50024D2
:10D38000009440F040008DF80000080E8DF8010078
:10D39000080C01948DF80200080A8DF804108DF82D
:10D3A00003008DF805201D46224620210848FCF781
:10D3B000A2FD6E46305DFFF7CDFF641C062CF9D34D
:10D3C000802D03D02846FFF7B3FF7CBD00207CBD35
:10D3D000000C024010B5012220210448FCF78BFD0F
:10D3E000BDE81040FF20FFF7B5BF0000000C024071
:10D3F00010B5FFF7C3FF0446FFF7ECFF204610BD52
:10D4000010B5064C01202070FBF708FF18B92078F2
:10D4100020F001002070207810BD000020010020C5
:10D4200010B514460F4A94B001201278D20702D0EA
:10D43000032014B010BD89B1012907D04FF4007248
:10D4400002290AD003290BD00420F2E76846FBF733
:10D45000B1FE1198400A206000E022800020E8E739
:10D460002260E6E72001002010B5084651020024A2
:10D470004FF40072FBF7ECFE00B10124204610BD12
:10D4800010B5064C01202070FBF7B3FE18B92078C8
:10D4900020F001002070207810BD00002001002045
:10D4A00010B50846510200244FF40072FBF70AFF42
:10D4B00000B10124204610BD2DE9F0471D469046DD
:10D4C0000E460446FCF71CFD07465FEA08004FF0D5
:10D4D00000084FF4005A4FF0010926D034E0681CD0
:10D4E00023D025B1FCF70CFDC01BA8421DD9206834
:10D4F000416821F0E00141602068016821F04001AD
:10D500000160A06A504509D12068016821F40051EA
:10D5100001602068016841F40051016084F8519075
:10D5200084F850800320BDE8F0872068806836EAE0
:10D530000000D4D10DE0681C06D0002DD7D0FCF738
:10D54000DFFCC01BA842D2D82068806836EA000001
:10D55000F1D00020E7E7000010B50348FEF727FAF6
:10D56000BDE8104000F002B8841D002010B511483D
:10D57000FEF731FA00281CD10E480F490122016044
:10D580000021C16142618160022202610722C0E97B
:10D590000A12C1604FF400720162826141624FF46D
:10D5A0008271416000F00AF8BDE810400148FEF7C2
:10D5B00015BA10BD841D00200038004070B586B03B
:10D5C00014216846FAF735FE1C48016841F008014D
:10D5D0000160016801F008010591016841F008014E
:10D5E00001600068022400F008000094059001200A
:10D5F000CDE9014003200525CDE90305104E69461C
:10D600003046FCF7ADFB102000906946049502946B
:10D610003046FCF7A5FB0820009069463046FCF731
:10D620009FFB06480830016841F4804101600068B2
:10D6300000F48040059006B070BD00001C38024028
:10D64000000C02400EB50020DFF87481DFF874A1F1
:10D650005D4F5E4C5E4D4FF0FF3B4FF4806640F2F5
:10D66000A22902905946D8F8100005F0B9FB00280D
:10D67000F8D19EE0534952481439001D04F09AFE37
:10D68000504814388078801F31286FD231464D4879
:10D69000FAF7CFFD4F49504851A209680068CDE91B
:10D6A00000014E4831460368464802F015FE4549E0
:10D6B000012201F2846004F0A9F80028207802D049
:10D6C000012858D05AE0012802D14CA002F0F4FD04
:10D6D00039684FF42A7041434C4803F043FE01007F
:10D6E00006D0207801284BD149A002F0E5FD47E0A3
:10D6F00031463448FAF79DFD02AB4A46314943486A
:10D7000004F058F9010008D02078012802D145A082
:10D7100002F0D2FDFBF782FD1AE09AF800103C29D6
:10D720000FD19AF8A1023E280BD12648FAF79EFDA8
:10D73000484506D14FF47A7005F02FFA21493EA0F2
:10D7400004E02078012803D11E493DA002F0B4FD79
:10D750002E4803F081FD50B12C4803F07DFD30B11F
:10D760003BA000E03EA002F0A7FD09E012E0207817
:10D770000128F7D004E03EA002F09EFDFBF74EFD2D
:10D780003F48144BCDE90070134A14493D48FBF75C
:10D79000D7FC03E042F2107005F0FFF92078012871
:10D7A00003D139A0296802F087FD286800283FF4DA
:10D7B00059AF2868401E2860401CF8D05AE7000086
:10D7C000C4000020E81300208C000020D8000020B6
:10D7D00078000020880000208400002080000020C5
:10D7E0002F444154412F253032642F253032645F5D
:10D7F000253032642E74787400000000B4F2BFAAA1
:10D80000CEC4BCFEB3C9B9A60D0A00006C1A002034
:10D81000CEC4BCFED1A1D6B7B4EDCEF33A25640D8B
:10D820000A000000B6C1CAFDBEDDCAA7B0DCA3BABB
:10D8300025640D0A0000000025730D0A0000000099
:10D84000CAFDBEDDC8B1B2E23A25730D0A00000080
:10D85000B9D8B1D5CEC4BCFECAA7B0DC0D0A000051
:10D86000B9D8B1D5CEC4BCFEB3C9B9A60D0A000063
:10D87000B4F2BFAACEC4BCFECAA7B0DC0D0A000039
:10D88000C00000207C000020BBB9D0E8D2AAB2B909
:10D89000D2AAB5C4CAFDBEDDCCF5CAFD3A25640DD9
:10D8A0000A00000010B505F0CBFABDE81040FCF707
:10D8B000FFBE0000CCB04FF00008182107A8CDF83B
:10D8C0002C81FAF7B6FCFEF787FEF848DFF8D8B3EC
:10D8D00000F10E014A910B3149910B3148910B3106
:10D8E00047910B3146910B3145910B3144910B31EE
:10D8F00043910B3142910B3141910B3140910B31EE
:10D900003F910B313E910B313D910B313C910B31ED
:10D910003B910B313A910B3139910B3138910B31ED
:10D9200037910B3136910B3135910B3134910B31ED
:10D9300033910B3132910B3131910B3130910B31ED
:10D940002F910B312E910B312D910B312C910B31ED
:10D950002B910B312A910B3129910B3128910B31ED
:10D9600027910B3126910B3125910B3124910B31ED
:10D9700023910B3122910B3121910B3120910B31ED
:10D980001F910B311E910B311D910B311C910B31ED
:10D990001B910B311A910B310F910B3119910B31F6
:10D9A00018910B3117910B3116910B3115910B31E9
:10D9B00014910B3113910B311291DFF8FC92A0F10D
:10D9C00014060B31DFF8E8A2BA4C00F297204F465C
:10D9D000CDE910014FF0FF31B86805F001FA0028D9
:10D9E000F8D14FF4FA71F86805F082F9002841F097
:10D9F000CC84AE4900221439B048FDF73BFD00222B
:10DA0000AD49AE48FDF714FD9BF800005D4658B1E6
:10DA100005F01EFD40B9AA480078012802D1A9A04E
:10DA200002F04AFC85F800809AF81A01554610B1B8
:10DA300001281AD043E094F8380100283FD120682B
:10DA4000FBF702F804AB2A6883E807003078B27865
:10DA500071788DE8070099F8023099F8012099F85B
:10DA600003109CA002F028FC29E094F8380110B1C2
:10DA7000012816D023E0286808BB2068FAF7E4FFE5
:10DA8000CDE904013078B27871788DE8070099F813
:10DA9000023099F8012099F8031099A002F00CFCCB
:10DAA0000DE03078B27871788DE8070099F802308F
:10DAB00099F8012099F803109CA002F0FDFBB078C2
:10DAC000F0B301287DD002287CD003287BD0042825
:10DAD0007AD0052879D0062878D0072877D008286A
